:020000040800F2
:1000000000500020E5360008A1340008A93400089B
:10001000B1340008B9340008C13400080000000001
:10002000000000000000000000000000C9340008CB
:10003000D534000800000000E1340008ED34000869
:100040002D3700082D3700082D3700082D37000800
:100050002D3700082D3700082D3700082D370008F0
:100060002D3700082D3700082D370008F934000817
:100070002D3700082D3700082D3700082D370008D0
:100080002D3700082D3700082D3700082D370008C0
:100090002D3700082D3700082D3700082D370008B0
:1000A0002D3700082D3700082D3700082D370008A0
:1000B0002D3700082D3700082D3700082D37000890
:1000C0002D3700082D3700082D3700082D37000880
:1000D0002D3700082D3700082D3700082D37000870
:1000E0002D3700082D3700082D37000800000000CC
:1000F0000000000000000000000000000000000000
:0C01000000000000000000005FF808F1A3
:10010C0010B5054C237833B9044B13B10448AFF345
:10011C0000800123237010BD5C0000200000000053
:10012C00243E000808B5034B1BB103490348AFF349
:10013C00008008BD0000000060000020243E000884
:10014C0080F0004002E000BF81F0004142001FBF80
:10015C005FEA410392EA030F7FEA226C7FEA236C89
:10016C006AD04FEA1262D2EB1363C1BFD21841407E
:10017C0048404140B8BF5B42192B88BF704710F014
:10018C00004F40F4000020F07F4018BF404211F0B7
:10019C00004F41F4000121F07F4118BF494292EA1F
:1001AC00030F3FD0A2F1010241FA03FC10EB0C004B
:1001BC00C3F1200301FA03F100F0004302D54942D8
:1001CC0060EB4000B0F5000F13D3B0F1807F06D385
:1001DC0040084FEA310102F10102FE2A51D2B1F17D
:1001EC00004F40EBC25008BF20F0010040EA030072
:1001FC007047490040EB0000013A28BFB0F5000FF2
:10020C00EDD2B0FA80FCACF1080CB2EB0C0200FAA7
:10021C000CF0AABF00EBC25052421843BCBFD040F6
:10022C001843704792F0000F81F4000106BF80F470
:10023C0000000132013BB5E74FEA41037FEA226C33
:10024C0018BF7FEA236C21D092EA030F04D092F0FE
:10025C00000F08BF0846704790EA010F1CBF002032
:10026C00704712F07F4F04D1400028BF40F000408F
:10027C00704712F100723CBF00F50000704700F0AF
:10028C00004343F0FE4040F4000070477FEA2262D6
:10029C0016BF08467FEA23630146420206BF5FEAA7
:1002AC00412390EA010F40F4800070474FF00003A7
:1002BC0004E000BF10F0004348BF40425FEA000C6E
:1002CC0008BF704743F0964301464FF000001CE016
:1002DC0050EA010208BF70474FF000030AE000BF6C
:1002EC0050EA010208BF704711F0004302D54042AA
:1002FC0061EB41015FEA010C02BF8446014600201C
:10030C0043F0B64308BFA3F18053A3F50003BCFA36
:10031C008CF2083AA3EBC25310DB01FA02FC6344E3
:10032C0000FA02FCC2F12002BCF1004F20FA02F2EA
:10033C0043EB020008BF20F00100704702F12002DD
:10034C0001FA02FCC2F1200250EA4C0021FA02F23E
:10035C0043EB020008BF20EADC7070474FF0FF0C43
:10036C001CEAD0521EBF1CEAD15392EA0C0F93EA3E
:10037C000C0F6FD01A4480EA010C400218BF5FEAE0
:10038C0041211ED04FF0006343EA501043EA511153
:10039C00A0FB01310CF00040B1F5000F3EBF49004D
:1003AC0041EAD3715B0040EA010062F17F02FD2A51
:1003BC001DD8B3F1004F40EBC25008BF20F0010034
:1003CC00704790F0000F0CF0004C08BF49024CEA4B
:1003DC00502040EA51207F3AC2BFD2F1FF0340EADD
:1003EC00C250704740F400004FF00003013A5DDC4E
:1003FC0012F1190FDCBF00F000407047C2F100028F
:10040C00410021FA02F1C2F1200200FA02FC5FEA7B
:10041C00310040F1000053EA4C0308BF20EADC70C5
:10042C00704792F0000F00F0004C02BF400010F437
:10043C00000F013AF9D040EA0C0093F0000F01F0E4
:10044C00004C02BF490011F4000F013BF9D041EA06
:10045C000C018FE70CEAD15392EA0C0F18BF93EA08
:10046C000C0F0AD030F0004C18BF31F0004CD8D132
:10047C0080EA010000F00040704790F0000F17BFB9
:10048C0090F0004F084691F0000F91F0004F14D0FF
:10049C0092EA0C0F01D142020FD193EA0C0F03D157
:1004AC004B0218BF084608D180EA010000F000405A
:1004BC0040F0FE4040F40000704740F0FE4040F435
:1004CC00400070474FF0FF0C1CEAD0521EBF1CEAD4
:1004DC00D15392EA0C0F93EA0C0F69D0A2EB0302F2
:1004EC0080EA010C49024FEA402037D04FF080538C
:1004FC0043EA111143EA10130CF000408B4238BF51
:10050C005B0042F17D024FF4000C8B4224BF5B1A5E
:10051C0040EA0C00B3EB510F24BFA3EB510340EAAC
:10052C005C00B3EB910F24BFA3EB910340EA9C005A
:10053C00B3EBD10F24BFA3EBD10340EADC001B01CA
:10054C0018BF5FEA1C1CE0D1FD2A3FF650AF8B426E
:10055C0040EBC25008BF20F0010070470CF0004C7B
:10056C004CEA50207F32C2BFD2F1FF0340EAC250A6
:10057C00704740F400004FF00003013A37E792F067
:10058C00000F00F0004C02BF400010F4000F013AC5
:10059C00F9D040EA0C0093F0000F01F0004C02BFC0
:1005AC00490011F4000F013BF9D041EA0C0195E729
:1005BC000CEAD15392EA0C0F08D142027FF47DAFC2
:1005CC0093EA0C0F7FF470AF084676E793EA0C0FB2
:1005DC0004D14B023FF44CAF08466EE730F0004CB0
:1005EC0018BF31F0004CCAD130F000427FF45CAF40
:1005FC0031F000437FF43CAF5FE700BF4FF0FF3CAE
:10060C0006E000BF4FF0010C02E000BF4FF0010C00
:10061C004DF804CD4FEA40024FEA41037FEA226CC9
:10062C0018BF7FEA236C11D001B052EA530C18BFEB
:10063C0090EA010F58BFB2EB030088BFC81738BF50
:10064C006FEAE17018BF40F0010070477FEA226C3E
:10065C0002D15FEA402C05D17FEA236CE4D15FEA3A
:10066C00412CE1D05DF8040B704700BF844608466E
:10067C006146FFE70FB5FFF7C9FF002848BF10F12F
:10068C00000F0FBD4DF808EDFFF7F4FF0CBF012074
:10069C0000205DF808FB00BF4DF808EDFFF7EAFFFE
:1006AC0034BF012000205DF808FB00BF4DF808EDB9
:1006BC00FFF7E0FF94BF012000205DF808FB00BFAE
:1006CC004DF808EDFFF7D2FF94BF012000205DF834
:1006DC0008FB00BF4DF808EDFFF7C8FF34BF012041
:1006EC0000205DF808FB00BF4FEA40024FEA4103CF
:1006FC007FEA226C02D15FEA402C08D17FEA236C9E
:10070C0002D15FEA412C02D14FF0000070474FF04C
:10071C000100704742000ED2B2F1FE4F0BD34FF0E6
:10072C009E03B3EB126209D44FEA002343F000435B
:10073C0023FA02F070474FF00000704712F1610F7E
:10074C0001D1420202D14FF0FF3070474FF0000050
:10075C00704700BF80B400AF00BFBD4680BC70477F
:10076C0080B586B000AF78600023FB7500233B6139
:10077C000023BB600023FB607B68002B01D10123AD
:10078C00BEE07B689B68002B7B689B6A002B09D1C1
:10079C007B680022DA627B68002283F82420786868
:1007AC0002F0E0FE786800F0FFFA0346FB757B6808
:1007BC009B6A03F01003002B40F09980FB7D002B0B
:1007CC0040F095807B689B6A23F4885323F00203E6
:1007DC0043F002027B689A627B685A687B68DB692B
:1007EC001A437B681B7B5B001343BA681343BB60E3
:1007FC007B689B68B3F5807F03D07B689B68012B7B
:10080C0002D14FF4807300E000233A6913433B613B
:10081C007B681B7D012B19D17B681B7B002B09D1BD
:10082C007B689B69013B5A033B69134343F40063A8
:10083C003B610BE07B689B6A43F020027B689A6209
:10084C007B68DB6A43F001027B68DA627B681B68B9
:10085C005B6823F469417B681B683A690A435A60F8
:10086C007B681B689A68284B13407A681268B968D1
:10087C000B4393607B689B68B3F5807F03D07B68E8
:10088C009B68012B04D17B681B69013B1B05FB603A
:10089C007B681B68DB6A23F470017B681B68FA6851
:1008AC000A43DA627B681B689A68184B1340BA6873
:1008BC009A420BD17B680022DA627B689B6A23F038
:1008CC00030343F001027B689A6218E07B689B6A21
:1008DC0023F0120343F010027B689A627B68DB6A98
:1008EC0043F001027B68DA620123FB7507E07B6849
:1008FC009B6A43F010027B689A620123FB75FB7DB7
:10090C0018461837BD4680BDFDF7E1FFFE0E1FFFF0
:10091C0080B586B000AFF860B9607A600023FB75D3
:10092C00FB681B68644A934204D0FB681B68634AEB
:10093C00934206D1604B5B6803F47023002B40F0AC
:10094C00B380FB6893F82430012B01D10223AEE075
:10095C00FB68012283F82420F86800F0CBF90346E9
:10096C00FB75FB7D002B40F09A80FB689B6A23F49F
:10097C00706323F0010343F48072FB689A62FB6896
:10098C001B684E4A934205D14B4B5B6803F47023B2
:10099C00002B15D1FB689B6A23F48012FB689A62CA
:1009AC00FB681B685B6803F48063002B26D0FB6834
:1009BC009B6A23F4405343F48052FB689A621DE017
:1009CC00FB689B6A43F48012FB689A62FB681B68A5
:1009DC00394A934204D0FB681B68384A93420DD1C4
:1009EC00354B5B6803F48063002B07D0FB689B6A74
:1009FC0023F4405343F48052FB689A62FB689B6A71
:100A0C0003F48053002B06D0FB68DB6A23F006024C
:100A1C00FB68DA6202E0FB680022DA62FB68002203
:100A2C0083F82420FB681B6A254A9A62FB681B6AC0
:100A3C00244ADA62FB681B6A234A1A63FB681B6848
:100A4C006FF002021A60FB681B689A68FB681B68EF
:100A5C0042F480729A60FB68186AFB681B684C331E
:100A6C001946BA687B6801F0B5FAFB681B689B688D
:100A7C0003F46023B3F5602F08D1FB681B689A68F8
:100A8C00FB681B6842F4A0029A600FE0FB681B68CD
:100A9C009A68FB681B6842F480129A6006E0FB6857
:100AAC00002283F8242001E00123FB75FB7D18460E
:100ABC001837BD4680BD00BF00240140002801400E
:100ACC00370E0008B30E0008CF0E000880B483B0B8
:100ADC0000AF786000BF0C37BD4680BC704780B457
:100AEC0083B000AF786000BF0C37BD4680BC704748
:100AFC0080B483B000AF786000BF0C37BD4680BCBB
:100B0C007047000080B485B000AF78603960002376
:100B1C00FB730023BB607B6893F82430012B01D15D
:100B2C000223DCE07B68012283F824203B685B68AD
:100B3C00062B1CD87B681B68596B3B685A6813469C
:100B4C009B001344053B1F2202FA03F3DB431940BD
:100B5C003B6818683B685A6813469B001344053B76
:100B6C0000FA03F27B681B680A435A633CE03B685B
:100B7C005B680C2B1CD87B681B68196B3B685A682C
:100B8C0013469B001344233B1F2202FA03F3DB435F
:100B9C0019403B6818683B685A6813469B0013441D
:100BAC00233B00FA03F27B681B680A431A631BE0C1
:100BBC007B681B68D96A3B685A6813469B001344D0
:100BCC00413B1F2202FA03F3DB4319403B681868D0
:100BDC003B685A6813469B001344413B00FA03F2EE
:100BEC007B681B680A43DA623B681B68092B1CD9BB
:100BFC007B681B68D9683B681A6813465B00134412
:100C0C001E3B072202FA03F3DB4319403B6898684A
:100C1C003B681A6813465B0013441E3B00FA03F250
:100C2C007B681B680A43DA6019E07B681B681969EA
:100C3C003B681A6813465B001344072202FA03F35D
:100C4C00DB4319403B6898683B681A6813465B00A5
:100C5C00134400FA03F27B681B680A431A613B6871
:100C6C001B68102B03D03B681B68112B32D17B689F
:100C7C001B681D4A934225D17B681B689B6803F453
:100C8C000003002B26D17B681B689A687B681B6865
:100C9C0042F400029A603B681B68102B1AD1134B6C
:100CAC001B68134AA2FB03239A0C13469B001344A4
:100CBC005B00BB6002E0BB68013BBB60BB68002B08
:100CCC00F9D107E07B689B6A43F020027B689A624B
:100CDC000123FB737B68002283F82420FB7B1846DE
:100CEC001437BD4680BC7047002401400000002032
:100CFC0083DE1B4380B584B000AF78600023FB60BB
:100D0C000023BB607B681B689B6803F00103012B0D
:100D1C0040D07B681B689A687B681B6842F00102B4
:100D2C009A601F4B1B681F4AA2FB03239B0CBB60E2
:100D3C0002E0BB68013BBB60BB68002BF9D100F043
:100D4C00E1F9F8601FE000F0DDF90246FB68D31A08
:100D5C00022B18D97B681B689B6803F00103012BDD
:100D6C0011D07B689B6A43F010027B689A627B68A7
:100D7C00DB6A43F001027B68DA627B68002283F84D
:100D8C002420012307E07B681B689B6803F00103A8
:100D9C00012BD8D1002318461037BD4680BD00BFAB
:100DAC000000002083DE1B4380B584B000AF786068
:100DBC000023FB607B681B689B6803F00103012B1D
:100DCC002ED17B681B689A687B681B6822F0010235
:100DDC009A6000F097F9F8601BE000F093F9024676
:100DEC00FB68D31A022B14D97B681B689B6803F031
:100DFC000103012B0DD17B689B6A43F010027B68C9
:100E0C009A627B68DB6A43F001027B68DA62012339
:100E1C0007E07B681B689B6803F00103012BDCD0A7
:100E2C00002318461037BD4680BD80B584B000AF96
:100E3C0078607B685B6AFB60FB689B6A03F050031D
:100E4C00002B27D1FB689B6A43F40072FB689A6203
:100E5C00FB681B689B6803F46023B3F5602F15D106
:100E6C00FB681B7B002B11D1FB689B6A23F48072FF
:100E7C00FB689A62FB689B6A03F48053002B05D1D4
:100E8C00FB689B6A43F00102FB689A62F868FFF703
:100E9C001DFE04E0FB681B6A1B6B7868984700BF5B
:100EAC001037BD4680BD80B584B000AF78607B68DC
:100EBC005B6AFB60F868FFF712FE00BF1037BD4697
:100ECC0080BD80B584B000AF78607B685B6AFB60E6
:100EDC00FB689B6A43F04002FB689A62FB68DB6A22
:100EEC0043F00402FB68DA62F868FFF701FE00BF0A
:100EFC001037BD4680BD000090B587B000AF78605C
:100F0C000023FB750023FB607B6893F82430012BD6
:100F1C0001D1022397E07B68012283F824207868B2
:100F2C00FFF742FF0346FB757868FFF7E3FE0346C5
:100F3C00FB75FB7D002B40F081807B689B6A23F462
:100F4C00885323F0020343F002027B689A62404B01
:100F5C001C68022000F092FD0346B4FBF3F35B0027
:100F6C00FB6002E0FB68013BFB60FB68002BF9D1E6
:100F7C007B681B689A687B681B6842F008029A6061
:100F8C0000F0C0F838611BE000F0BCF802463B6989
:100F9C00D31A0A2B14D97B681B689B6803F00803CF
:100FAC00002B0DD07B689B6A23F0120343F01002D8
:100FBC007B689A627B68002283F82420012342E03C
:100FCC007B681B689B6803F00803002BDCD17B68F3
:100FDC001B689A687B681B6842F004029A6000F0F8
:100FEC0091F838611BE000F08DF802463B69D31A8A
:100FFC000A2B14D97B681B689B6803F00403002B35
:10100C000DD07B689B6A23F0120343F010027B68BF
:10101C009A627B68002283F82420012313E07B680A
:10102C001B689B6803F00403002BDCD17B689B6A74
:10103C0023F0030343F001027B689A627B68002271
:10104C0083F82420FB7D18461C37BD4690BD00BF9D
:10105C000000002080B500AF084B1B68074A43F026
:10106C0010031360032001F015FA0F2000F008F8AC
:10107C0002F046FA0023184680BD00BF0020024053
:10108C0080B582B000AF7860124B1A68124B1B7897
:10109C0019464FF47A73B3FBF1F3B2FBF3F3184632
:1010AC0001F02DFA0346002B01D001230EE07B68E2
:1010BC000F2B0AD8002279684FF0FF3001F0F5F9B8
:1010CC00064A7B681360002300E0012318460837AA
:1010DC00BD4680BD00000020080000200400002058
:1010EC0080B400AF054B1B781A46054B1B681344A4
:1010FC00034A136000BFBD4680BC70470800002047
:10110C007800002080B400AF024B1B681846BD4627
:10111C0080BC70477800002080B586B000AF786046
:10112C007B68002B01D1012372E27B681B6803F002
:10113C000103002B00F08780924B5B6803F00C03DB
:10114C00042B0CD08F4B5B6803F00C03082B12D1D3
:10115C008C4B5B6803F48033B3F5803F0BD1894B28
:10116C001B6803F40033002B6CD07B685B68002B8E
:10117C0068D101234CE27B685B68B3F5803F06D1F4
:10118C00804B1B687F4A43F4803313602EE07B68EE
:10119C005B68002B0CD17B4B1B687A4A23F48033A1
:1011AC001360784B1B68774A23F4802313601DE08F
:1011BC007B685B68B3F5A02F0CD1724B1B68714A2E
:1011CC0043F4802313606F4B1B686E4A43F48033E7
:1011DC0013600BE06B4B1B686A4A23F4803313607B
:1011EC00684B1B68674A23F4802313607B685B6839
:1011FC00002B13D0FFF786FF386108E0FFF782FF62
:10120C0002463B69D31A642B01D9032300E25D4BE0
:10121C001B6803F40033002BF0D014E0FFF772FFCF
:10122C00386108E0FFF76EFF02463B69D31A642B66
:10123C0001D90323ECE1534B1B6803F40033002B5F
:10124C00F0D100E000BF7B681B6803F00203002BA9
:10125C0063D04C4B5B6803F00C03002B0BD0494B59
:10126C005B6803F00C03082B1CD1464B5B6803F442
:10127C008033002B16D1434B1B6803F00203002B69
:10128C0005D07B681B69012B01D00123C0E13D4BCC
:10129C001B6823F0F8027B685B69DB003949134358
:1012AC000B603AE07B681B69002B20D0364B012287
:1012BC001A60FFF727FF386108E0FFF723FF0246AB
:1012CC003B69D31A022B01D90323A1E12D4B1B68D7
:1012DC0003F00203002BF0D02A4B1B6823F0F8021A
:1012EC007B685B69DB00274913430B6015E0264BD9
:1012FC0000221A60FFF706FF386108E0FFF702FFD3
:10130C0002463B69D31A022B01D9032380E11D4B02
:10131C001B6803F00203002BF0D17B681B6803F001
:10132C000803002B3AD07B689B69002B19D0174B14
:10133C0001221A60FFF7E6FE386108E0FFF7E2FED3
:10134C0002463B69D31A022B01D9032360E10D4BF2
:10135C005B6A03F00203002BF0D0012000F0BAFA14
:10136C001CE00A4B00221A60FFF7CCFE38610FE03C
:10137C00FFF7C8FE02463B69D31A022B08D9032398
:10138C0046E100BF0010024000004242800442428D
:10139C00924B5B6A03F00203002BE9D17B681B685C
:1013AC0003F00403002B00F0A6800023FB758B4B8D
:1013BC00DB6903F08053002B0DD1884BDB69874A26
:1013CC0043F08053D361854BDB6903F08053BB60E2
:1013DC00BB680123FB75824B1B6803F48073002BE5
:1013EC0018D17F4B1B687E4A43F480731360FFF760
:1013FC0089FE386108E0FFF785FE02463B69D31A87
:10140C00642B01D9032303E1754B1B6803F4807330
:10141C00002BF0D07B68DB68012B06D16F4B1B6A6D
:10142C006E4A43F0010313622DE07B68DB68002BEE
:10143C000CD16A4B1B6A694A23F001031362674B98
:10144C001B6A664A23F0040313621CE07B68DB68AA
:10145C00052B0CD1614B1B6A604A43F004031362E9
:10146C005E4B1B6A5D4A43F0010313620BE05B4B5E
:10147C001B6A5A4A23F001031362584B1B6A574AE2
:10148C0023F0040313627B68DB68002B15D0FFF795
:10149C0039FE38610AE0FFF735FE02463B69D31A84
:1014AC0041F28832934201D90323B1E04B4B1B6AC2
:1014BC0003F00203002BEED014E0FFF723FE38619B
:1014CC000AE0FFF71FFE02463B69D31A41F288324D
:1014DC00934201D903239BE0404B1B6A03F00203A8
:1014EC00002BEED1FB7D012B05D13C4BDB693B4A3C
:1014FC0023F08053D3617B68DB69002B00F087807D
:10150C00364B5B6803F00C03082B61D07B68DB69FE
:10151C00022B46D1334B00221A60FFF7F3FD3861E2
:10152C0008E0FFF7EFFD02463B69D31A022B01D905
:10153C0003236DE0294B1B6803F00073002BF0D1E3
:10154C007B681B6AB3F5803F08D1244B5B6823F49E
:10155C0000327B689B68214913434B601F4B5B68CF
:10156C0023F474127B68196A7B685B6A0B431B4912
:10157C0013434B601B4B01221A60FFF7C3FD38610C
:10158C0008E0FFF7BFFD02463B69D31A022B01D9D5
:10159C0003233DE0114B1B6803F00073002BF0D0CC
:1015AC0035E0104B00221A60FFF7ACFD386108E003
:1015BC00FFF7A8FD02463B69D31A022B01D903237E
:1015CC0026E0064B1B6803F00073002BF0D11EE0E5
:1015DC007B68DB69012B07D1012319E00010024065
:1015EC0000700040600042420B4B5B68FB60FB6884
:1015FC0003F480327B681B6A9A4206D1FB6803F4C1
:10160C0070127B685B6A9A4201D0012300E00023D0
:10161C0018461837BD4680BD0010024080B584B016
:10162C0000AF786039607B68002B01D10123D0E0DA
:10163C006A4B1B6803F007033A689A4210D9674B50
:10164C001B6823F0070265493B6813430B60634B2F
:10165C001B6803F007033A689A4201D00123B8E0F3
:10166C007B681B6803F00203002B20D07B681B688F
:10167C0003F00403002B05D0594B5B68584A43F424
:10168C00E06353607B681B6803F00803002B05D0F4
:10169C00534B5B68524A43F460535360504B5B6846
:1016AC0023F0F0027B689B684D4913434B607B68C9
:1016BC001B6803F00103002B40D07B685B68012B97
:1016CC0007D1474B1B6803F40033002B15D10123C2
:1016DC007FE07B685B68022B07D1414B1B6803F0F2
:1016EC000073002B09D1012373E03D4B1B6803F001
:1016FC000203002B01D101236BE0394B5B6823F013
:10170C0003027B685B68364913434B60FFF7FAFCB6
:10171C00F8600AE0FFF7F6FC0246FB68D31A41F2C8
:10172C008832934201D9032353E02D4B5B6803F0BD
:10173C000C027B685B689B009A42EBD1274B1B68C1
:10174C0003F007033A689A4210D2244B1B6823F02B
:10175C00070222493B6813430B60204B1B6803F0C4
:10176C0007033A689A4201D0012332E07B681B6878
:10177C0003F00403002B08D0194B5B6823F4E062E0
:10178C007B68DB68164913434B607B681B6803F06E
:10179C000803002B09D0124B5B6823F460527B6862
:1017AC001B69DB000E4913434B6000F021F8024625
:1017BC000B4B5B681B0903F00F030A49CB5C22FA45
:1017CC0003F3094A1360094B1B681846FFF758FCD2
:1017DC00002318461037BD4680BD00BF00200240D4
:1017EC00001002403C3E00080000002004000020D5
:1017FC0080B487B000AF0023FB600023BB600023E4
:10180C007B6100237B6000233B611E4B5B68FB60AC
:10181C00FB6803F00C03042B02D0082B03D027E049
:10182C00194B3B6127E0FB689B0C03F00F03174A35
:10183C00D35C7B60FB6803F48033002B10D0114B1E
:10184C005B685B0C03F00103114AD35CBB607B68E3
:10185C000D4A03FB02F2BB68B2FBF3F37B6104E0BD
:10186C007B680C4A02FB03F37B617B693B6102E002
:10187C00054B3B6100BF3B6918461C37BD4680BC1D
:10188C00704700BF0010024000127A00543E00085E
:10189C00643E000800093D0080B400AF024B1B6899
:1018AC001846BD4680BC70470000002080B500AFD4
:1018BC00FFF7F2FF0246054B5B68DB0A03F00703F8
:1018CC000349CB5C22FA03F3184680BD001002409A
:1018DC004C3E000880B485B000AF78600A4B1B68A2
:1018EC000A4AA2FB03235B0A7A6802FB03F3FB6040
:1018FC0000BFFB685A1EFA60002BF9D100BF00BF75
:10190C001437BD4680BC704700000020D34D6210D8
:10191C0080B586B000AF786000233B610023FB608C
:10192C007B681B6803F00103002B7DD00023FB7543
:10193C004F4BDB6903F08053002B0DD14C4BDB6913
:10194C004B4A43F08053D361494BDB6903F080531E
:10195C00BB60BB680123FB75464B1B6803F48073AB
:10196C00002B18D1434B1B68424A43F4807313601D
:10197C00FFF7C8FB386108E0FFF7C4FB02463B6980
:10198C00D31A642B01D903236DE03A4B1B6803F483
:10199C008073002BF0D0364B1B6A03F44073FB6052
:1019AC00FB68002B2ED07B685B6803F44073FA68ED
:1019BC009A4227D02E4B1B6A23F44073FB602E4BAC
:1019CC0001221A602C4B00221A60294AFB68136210
:1019DC00FB6803F00103002B14D0FFF793FB386175
:1019EC000AE0FFF78FFB02463B69D31A41F28832BB
:1019FC00934201D9032336E01D4B1B6A03F002030B
:101A0C00002BEED01A4B1B6A23F440727B685B6888
:101A1C00174913430B62FB7D012B05D1144BDB697A
:101A2C00134A23F08053D3617B681B6803F00203D5
:101A3C00002B08D00E4B5B6823F440427B689B68FC
:101A4C000B4913434B607B681B6803F01003002B9E
:101A5C0008D0074B5B6823F480027B68DB68044981
:101A6C0013434B60002318461837BD4680BD00BF9A
:101A7C0000100240007000404004424280B588B023
:101A8C0000AF786000237B610023FB6100233B6186
:101A9C000023FB600023BB617B68102B0AD07B68A2
:101AAC00102B00F28A807B68012B45D07B68022BBF
:101ABC0075D082E0464B5B68FB60454B1B6803F0BE
:101ACC008073002B7BD0FB689B0C03F00F03414A07
:101ADC00D35C3B61FB6803F48033002B15D03C4B8B
:101AEC005B685B0C03F001033B4AD35C7B61FB68D6
:101AFC0003F48033002B0DD0384A7B69B2FBF3F230
:101B0C003B6902FB03F3FB6104E03B69344A02FBD3
:101B1C0003F3FB612E4B5B6803F48003B3F5800F7A
:101B2C0002D1FB69BB614AE0FB695B002D4AA2FB59
:101B3C0003235B08BB6142E0254B1B6AFB60FB681F
:101B4C0003F44073B3F5807F08D1FB6803F0020304
:101B5C00002B03D04FF40043BB611FE0FB6803F480
:101B6C004073B3F5007F09D1194B5B6A03F0020394
:101B7C00002B03D049F64043BB610FE0FB6803F434
:101B8C004073B3F5407F1CD1114B1B6803F4003339
:101B9C00002B16D04FF22443BB6112E011E0FFF78B
:101BAC0085FE02460A4B5B689B0B03F00303013373
:101BBC005B00B2FBF3F3BB6104E000BF02E000BFCB
:101BCC0000E000BFBB6918462037BD4680BD00BF92
:101BDC0000100240683E0008783E000800127A00AF
:101BEC0000093D00ABAAAAAA80B48BB000AF786004
:101BFC00396000237B6200233B6269E101227B6A2E
:101C0C0002FA03F3FB613B681B68FA691340BB6182
:101C1C00BA69FB699A4240F058813B685B689A4A02
:101C2C0093425ED0984A934275D8984A934258D0C2
:101C3C00964A93426FD8964A934252D0944A934212
:101C4C0069D8944A93424CD0924A934263D8924AB0
:101C5C00934246D0904A93425DD8122B2AD8122B2D
:101C6C0059D801A252F823F0EF1C0008C91C000837
:101C7C00DB1C00081D1D0008231D0008231D000887
:101C8C00231D0008231D0008231D0008231D000828
:101C9C00231D0008231D0008231D0008231D000818
:101CAC00231D0008231D0008231D0008D11C00085B
:101CBC00E51C0008794A934213D02CE03B68DB68A2
:101CCC003B6229E03B68DB6804333B6224E03B6801
:101CDC00DB6808333B621FE03B68DB680C333B621C
:101CEC001AE03B689B68002B02D104233B6213E093
:101CFC003B689B68012B05D108233B627B68FA6922
:101D0C001A6109E008233B627B68FA695A6103E0B7
:101D1C0000233B6200E000BFBB69FF2B01D87B684E
:101D2C0001E07B6804337B61BB69FF2B02D87B6AC3
:101D3C009B0002E07B6A083B9B003B617B691A6855
:101D4C000F213B6901FA03F3DB431A40396A3B6903
:101D5C0001FA03F31A437B691A603B685B6803F072
:101D6C008053002B00F0B1804D4B9B694C4A43F0E3
:101D7C00010393614A4B9B6903F00103BB60BB6891
:101D8C00484A7B6A9B08023352F82330FB607B6A1B
:101D9C0003F003039B000F2202FA03F3DB43FA6800
:101DAC001340FB607B68404A934213D07B683F4AE8
:101DBC0093420DD07B683E4A934207D07B683D4AE4
:101DCC00934201D1032306E0042304E0022302E042
:101DDC00012300E000237A6A02F003029200934090
:101DEC00FA681343FB602F497B6A9B080233FA683D
:101DFC0041F823203B685B6803F48013002B06D06A
:101E0C002D4B9A682C49BB6913438B6006E02A4B17
:101E1C009A68BB69DB43284913408B603B685B685D
:101E2C0003F40013002B06D0234BDA682249BB695C
:101E3C001343CB6006E0204BDA68BB69DB431E49D9
:101E4C001340CB603B685B6803F40033002B06D077
:101E5C00194B5A681849BB6913434B6006E0164B83
:101E6C005A68BB69DB43144913404B603B685B68A1
:101E7C0003F48033002B21D00F4B1A680E49BB6939
:101E8C0013430B6021E000BF000032100000311042
:101E9C000000221000002110000012100000111090
:101EAC00001002400000014000080140000C0140FD
:101EBC000010014000140140000401400B4B1A6853
:101ECC00BB69DB43094913400B607B6A01337B62BE
:101EDC003B681A687B6A22FA03F3002B7FF48EAE00
:101EEC0000BF00BF2C37BD4680BC704700040140CA
:101EFC0080B483B000AF78600B467B8013467B7058
:101F0C007B78002B03D07A887B681A6103E07B888E
:101F1C001A047B681A6100BF0C37BD4680BC704741
:101F2C0080B485B000AF78600023FB607B68002B29
:101F3C0001D1012343E07B681B681A46224B1344F2
:101F4C00224AA2FB03231B099A007B681A647B6854
:101F5C001F4ADA637B68022283F821207B681B68A6
:101F6C001B68FB60FB6823F47F5323F03003FB609A
:101F7C007B685A687B689B681A437B68DB681A43EA
:101F8C007B681B691A437B685B691A437B689B6996
:101F9C001A437B68DB691343FA681343FB607B6865
:101FAC001B68FA681A607B6800229A637B680122BE
:101FBC0083F821207B68002283F820200023184618
:101FCC001437BD4680BC7047F8FFFDBFCDCCCCCCE0
:101FDC000000024080B586B000AFF860B9607A604E
:101FEC003B600023FB75FB6893F82030012B01D17B
:101FFC0002234BE0FB68012283F82020FB6893F856
:10200C002130DBB2012B3AD1FB68022283F821206C
:10201C00FB6800229A63FB681B681A68FB681B68E4
:10202C0022F001021A603B687A68B968F86800F01F
:10203C0037F9FB68DB6A002B08D0FB681B681A6851
:10204C00FB681B6842F00E021A600FE0FB681B680D
:10205C001A68FB681B6822F004021A60FB681B6894
:10206C001A68FB681B6842F00A021A60FB681B685E
:10207C001A68FB681B6842F001021A6005E0FB68F5
:10208C00002283F820200223FB75FB7D18461837AD
:10209C00BD4680BD80B584B000AF78607B68DB6BDB
:1020AC001B68FB607B681B681B68BB607B681B6CD8
:1020BC0004229A40FB681340002B4FD0BB6803F0FE
:1020CC000403002B4AD07B681B681B6803F02003B9
:1020DC00002B07D17B681B681A687B681B6822F091
:1020EC0004021A607B681B68664A934229D07B689D
:1020FC001B68654A934222D07B681B68634A9342F3
:10210C001AD07B681B68624A934212D07B681B68AA
:10211C00604A93420AD07B681B685F4A934202D1A3
:10212C004FF480030EE04FF080630BE04FF48023FC
:10213C0008E04FF4804305E04FF4806302E0402355
:10214C0000E00423554A53607B68DB6A002B00F0E7
:10215C0094807B68DB6A786898478EE07B681B6CA0
:10216C0002229A40FB681340002B56D0BB6803F048
:10217C000203002B51D07B681B681B6803F0200303
:10218C00002B0BD17B681B681A687B681B6822F0DC
:10219C000A021A607B68012283F821207B681B6885
:1021AC00384A934229D07B681B68374A934222D025
:1021BC007B681B68354A93421AD07B681B68344A8B
:1021CC00934212D07B681B68324A93420AD07B68D8
:1021DC001B68314A934202D14FF400130EE04FF0CA
:1021EC0000730BE04FF4003308E04FF4005305E0AC
:1021FC004FF4007302E0202300E00223274A5360CF
:10220C007B68002283F820207B689B6A002B34D0EB
:10221C007B689B6A786898472FE07B681B6C082268
:10222C009A40FB681340002B28D0BB6803F00803CE
:10223C00002B23D07B681B681A687B681B6822F014
:10224C000E021A607B681A6C7B68DB6B012101FA49
:10225C0002F25A607B6801229A637B68012283F840
:10226C0021207B68002283F820207B681B6B002BCD
:10227C0004D07B681B6B7868984700BF00BF103791
:10228C00BD4680BD080002401C00024030000240E8
:10229C0044000240580002406C0002400000024022
:1022AC0080B485B000AFF860B9607A603B60FB68C1
:1022BC001A6CFB68DB6B012101FA02F25A60FB68B5
:1022CC001B683A685A60FB685B68102B08D1FB6886
:1022DC001B687A689A60FB681B68BA68DA6007E06A
:1022EC00FB681B68BA689A60FB681B687A68DA60DE
:1022FC0000BF1437BD4680BC7047000080B485B069
:10230C0000AF78607B6803F00703FB600C4BDB6865
:10231C00BB60BA684FF6FF031340BB60FB681A0240
:10232C00BB68134343F0BF6343F40033BB60044A00
:10233C00BB68D36000BF1437BD4680BC704700BF7C
:10234C0000ED00E080B400AF044BDB681B0A03F027
:10235C0007031846BD4680BC704700BF00ED00E087
:10236C0080B483B000AF0346FB7197F90730002BA4
:10237C000BDBFB7903F01F02064997F907305B0969
:10238C00012000FA02F241F8232000BF0C37BD46B1
:10239C0080BC704700E100E080B483B000AF03461E
:1023AC003960FB7197F90730002B0ADB3B68DAB216
:1023BC000C4997F907301201D2B20B4483F8002371
:1023CC000AE03B68DAB20849FB7903F00F03043BDF
:1023DC001201D2B20B441A7600BF0C37BD4680BC3A
:1023EC00704700BF00E100E000ED00E080B489B070
:1023FC0000AFF860B9607A60FB6803F00703FB611B
:10240C00FB69C3F10703042B28BF0423BB61FB69E1
:10241C000433062B02D9FB69033B00E000237B61EC
:10242C004FF0FF32BB6902FA03F3DA43BB681A4080
:10243C007B699A404FF0FF317B6901FA03F3D94372
:10244C007B680B40134318462437BD4680BC70474D
:10245C0080B582B000AF78607B68013BB3F1807FC0
:10246C0001D301230FE00A4A7B68013B53600F2123
:10247C004FF0FF30FFF790FF054B00229A60044BA2
:10248C0007221A60002318460837BD4680BD00BFDE
:10249C0010E000E080B582B000AF78607868FFF79C
:1024AC002DFF00BF0837BD4680BD80B586B000AF9C
:1024BC000346B9607A60FB7300237B61FFF742FF30
:1024CC0078617A68B9687869FFF790FF024697F9E6
:1024DC000F3011461846FFF75FFF00BF1837BD4697
:1024EC0080BD80B582B000AF0346FB7197F9073011
:1024FC001846FFF735FF00BF0837BD4680BD80B5D5
:10250C0082B000AF78607868FFF7A2FF03461846E8
:10251C000837BD4680BD80B582B000AF78607B685F
:10252C00002B01D1012341E07B6893F83D30DBB2F5
:10253C00002B06D17B68002283F83C20786801F0E0
:10254C007BF87B68022283F83D207B681A687B68E5
:10255C0004331946104600F0B1FA7B68012283F867
:10256C0046207B68012283F83E207B68012283F899
:10257C003F207B68012283F840207B68012283F88E
:10258C0041207B68012283F842207B68012283F87A
:10259C0043207B68012283F844207B68012283F866
:1025AC0045207B68012283F83D200023184608371C
:1025BC00BD4680BD80B582B000AF78607B68002BD3
:1025CC0001D1012341E07B6893F83D30DBB2002B55
:1025DC0006D17B68002283F83C20786800F039F83B
:1025EC007B68022283F83D207B681A687B68043381
:1025FC001946104600F062FA7B68012283F84620E7
:10260C007B68012283F83E207B68012283F83F20FF
:10261C007B68012283F840207B68012283F84120EB
:10262C007B68012283F842207B68012283F84320D7
:10263C007B68012283F844207B68012283F84520C3
:10264C007B68012283F83D20002318460837BD46DD
:10265C0080BD80B483B000AF786000BF0C37BD463E
:10266C0080BC704780B584B000AF786039603B683F
:10267C00002B09D17B6893F83E30DBB2012B14BFE1
:10268C0001230023DBB222E03B68042B09D17B68D9
:10269C0093F83F30DBB2012B14BF01230023DBB2D4
:1026AC0015E03B68082B09D17B6893F84030DBB20E
:1026BC00012B14BF01230023DBB208E07B6893F8E5
:1026CC004130DBB2012B14BF01230023DBB2002B02
:1026DC0001D001235EE03B68002B04D17B68022211
:1026EC0083F83E2013E03B68042B04D17B68022264
:1026FC0083F83F200BE03B68082B04D17B68022257
:10270C0083F8402003E07B68022283F841207B6839
:10271C001B6801223968184600F05CFC7B681B685A
:10272C001E4A934207D17B681B685A6C7B681B68F6
:10273C0042F400425A647B681B68184A93420ED0DC
:10274C007B681B68B3F1804F09D07B681B68144A07
:10275C00934204D07B681B68124A934211D17B6868
:10276C001B689B6803F00703FB60FB68062B10D00B
:10277C007B681B681A687B681B6842F001021A6050
:10278C0007E07B681B681A687B681B6842F00102D3
:10279C001A60002318461037BD4680BD002C01403E
:1027AC00000400400008004080B586B000AFF8601F
:1027BC00B9607A600023FB75FB6893F83C30012B01
:1027CC0001D10223AEE0FB68012283F83C207B6838
:1027DC000C2B00F29F8001A252F823F01D28000858
:1027EC002129000821290008212900085D2800085A
:1027FC002129000821290008212900089F28000808
:10280C00212900082129000821290008DF280008B7
:10281C00FB681B68B968184600F0BEF9FB681B68BA
:10282C009A69FB681B6842F008029A61FB681B6896
:10283C009A69FB681B6822F004029A61FB681B68AA
:10284C009969BB681A69FB681B680A439A6164E062
:10285C00FB681B68B968184600F004FAFB681B6833
:10286C009A69FB681B6842F400629A61FB681B68FA
:10287C009A69FB681B6822F480629A61FB681B688A
:10288C009969BB681B691A02FB681B680A439A6149
:10289C0043E0FB681B68B968184600F04DFAFB680A
:1028AC001B68DA69FB681B6842F00802DA61FB6896
:1028BC001B68DA69FB681B6822F00402DA61FB68AA
:1028CC001B68D969BB681A69FB681B680A43DA6123
:1028DC0023E0FB681B68B968184600F097FAFB68A0
:1028EC001B68DA69FB681B6842F40062DA61FB68FA
:1028FC001B68DA69FB681B6822F48062DA61FB688A
:10290C001B68D969BB681B691A02FB681B680A4300
:10291C00DA6102E00123FB7500BFFB68002283F83B
:10292C003C20FB7D18461837BD4680BD80B584B071
:10293C0000AF786039600023FB737B6893F83C3000
:10294C00012B01D10223B4E07B68012283F83C20E7
:10295C007B68022283F83D207B681B689B68BB6008
:10296C00BB6823F07703BB60BB6823F47F43BB6079
:10297C007B681B68BA689A603B681B68B3F5005F9C
:10298C003ED0B3F5005F00F28780B3F5805F00F0B6
:10299C008680B3F5805F7FD8702B1AD0702B7BD8D4
:1029AC00602B50D0602B77D8502B3CD0502B73D849
:1029BC00402B58D0402B6FD8302B64D0302B6BD899
:1029CC00202B60D0202B67D8002B5CD0102B5AD03A
:1029DC0062E07B6818683B6899683B685A683B689A
:1029EC00DB6800F0D8FA7B681B689B68BB60BB682F
:1029FC0043F07703BB607B681B68BA689A604FE052
:102A0C007B6818683B6899683B685A683B68DB6868
:102A1C0000F0C1FA7B681B689A687B681B6842F4FB
:102A2C0080429A603CE07B6818683B6859683B6858
:102A3C00DB681A4600F038FA7B681B685021184690
:102A4C0000F08FFA2CE07B6818683B6859683B688B
:102A5C00DB681A4600F056FA7B681B686021184642
:102A6C0000F07FFA1CE07B6818683B6859683B688B
:102A7C00DB681A4600F018FA7B681B684021184680
:102A8C0000F06FFA0CE07B681A683B681B6819460B
:102A9C00104600F066FA03E00123FB7300E000BF70
:102AAC007B68012283F83D207B68002283F83C2060
:102ABC00FB7B18461037BD4680BD000080B485B046
:102ACC0000AF786039607B681B68FB607B682F4ABD
:102ADC0093420BD07B68B3F1804F07D07B682C4AB4
:102AEC00934203D07B682B4A934208D1FB6823F0B6
:102AFC007003FB603B685B68FA681343FB607B68A0
:102B0C00224A93420BD07B68B3F1804F07D07B688D
:102B1C001F4A934203D07B681E4A934208D1FB683C
:102B2C0023F44073FB603B68DB68FA681343FB607B
:102B3C00FB6823F080023B685B691343FB607B6896
:102B4C00FA681A603B689A687B68DA623B681A68B4
:102B5C007B689A627B680D4A934203D13B681A6981
:102B6C007B681A637B6801225A617B681B6903F0DE
:102B7C000103002B05D07B681B6923F001027B68E5
:102B8C001A6100BF1437BD4680BC7047002C014051
:102B9C00000400400008004080B487B000AF7860AB
:102BAC0039607B681B6A7B617B681B6A23F00102BE
:102BBC007B681A627B685B683B617B689B69FB6026
:102BCC00FB6823F07003FB60FB6823F00303FB60DE
:102BDC003B681B68FA681343FB607B6923F00203B4
:102BEC007B613B689B687A6913437B617B681C4AF9
:102BFC0093420CD17B6923F008037B613B68DB6853
:102C0C007A6913437B617B6923F004037B617B68E6
:102C1C00134A934211D13B6923F480733B613B69A6
:102C2C0023F400733B613B685B693A6913433B6176
:102C3C003B689B693A6913433B617B683A695A600C
:102C4C007B68FA689A613B685A687B685A637B6850
:102C5C007A691A6200BF1C37BD4680BC704700BF42
:102C6C00002C014080B487B000AF786039607B687D
:102C7C001B6A7B617B681B6A23F010027B681A62FB
:102C8C007B685B683B617B689B69FB60FB6823F43A
:102C9C00E043FB60FB6823F44073FB603B681B68FC
:102CAC001B02FA681343FB607B6923F020037B61F2
:102CBC003B689B681B017A6913437B617B681D4AE7
:102CCC0093420DD17B6923F080037B613B68DB6809
:102CDC001B017A6913437B617B6923F040037B61A1
:102CEC007B68144A934213D13B6923F480633B61A4
:102CFC003B6923F400633B613B685B699B003A6969
:102D0C0013433B613B689B699B003A6913433B61EE
:102D1C007B683A695A607B68FA689A613B685A68C2
:102D2C007B689A637B687A691A6200BF1C37BD4660
:102D3C0080BC7047002C014080B487B000AF786035
:102D4C0039607B681B6A7B617B681B6A23F4807229
:102D5C007B681A627B685B683B617B68DB69FB6044
:102D6C00FB6823F07003FB60FB6823F00303FB603C
:102D7C003B681B68FA681343FB607B6923F40073A0
:102D8C007B613B689B681B027A6913437B617B68A0
:102D9C001D4A93420DD17B6923F400637B613B6830
:102DAC00DB681B027A6913437B617B6923F48063C4
:102DBC007B617B68144A934213D13B6923F48053A3
:102DCC003B613B6923F400533B613B685B691B012E
:102DDC003A6913433B613B689B691B013A69134396
:102DEC003B617B683A695A607B68FA68DA613B68D8
:102DFC005A687B68DA637B687A691A6200BF1C3791
:102E0C00BD4680BC704700BF002C014080B487B029
:102E1C0000AF786039607B681B6A3B617B681B6A1A
:102E2C0023F480527B681A627B685B687B617B68E9
:102E3C00DB69FB60FB6823F4E043FB60FB6823F475
:102E4C004073FB603B681B681B02FA681343FB6012
:102E5C003B6923F400533B613B689B681B033A6955
:102E6C0013433B617B680F4A934209D17B6923F47E
:102E7C0080437B613B685B699B017A6913437B618F
:102E8C007B687A695A607B68FA68DA613B685A68D1
:102E9C007B681A647B683A691A6200BF1C37BD46AE
:102EAC0080BC7047002C014080B487B000AFF86044
:102EBC00B9607A60FB681B6A7B61FB681B6A23F054
:102ECC000102FB681A62FB689B693B613B6923F05A
:102EDC00F0033B617B681B013A6913433B617B69DF
:102EEC0023F00A037B617A69BB6813437B61FB683F
:102EFC003A699A61FB687A691A6200BF1C37BD4651
:102F0C0080BC704780B487B000AFF860B9607A605D
:102F1C00FB681B6A7B61FB681B6A23F01002FB6871
:102F2C001A62FB689B693B613B6923F470433B610C
:102F3C007B681B033A6913433B617B6923F0A00355
:102F4C007B61BB681B017A6913437B61FB683A693F
:102F5C009A61FB687A691A6200BF1C37BD4680BC57
:102F6C00704780B485B000AF786039607B689B682F
:102F7C00FB60FB6823F07003FB603A68FB6813434B
:102F8C0043F00703FB607B68FA689A6000BF143754
:102F9C00BD4680BC704780B487B000AFF860B960A4
:102FAC007A603B60FB689B687B617B6923F47F43A1
:102FBC007B613B681A027B681A43BB6813437A69CE
:102FCC0013437B61FB687A699A6000BF1C37BD466E
:102FDC0080BC704780B487B000AFF860B9607A608D
:102FEC00BB6803F01F03012202FA03F37B61FB6849
:102FFC001A6A7B69DB431A40FB681A62FB681A6A1F
:10300C00BB6803F01F03796801FA03F31A43FB68EA
:10301C001A6200BF1C37BD4680BC704780B485B0B7
:10302C0000AF786039607B6893F83C30012B01D19C
:10303C00022346E07B68012283F83C207B68022255
:10304C0083F83D207B681B685B68FB607B681B68B2
:10305C009B68BB60FB6823F07003FB603B681B68DC
:10306C00FA681343FB607B681B68FA685A607B68DC
:10307C001B68164A93420ED07B681B68B3F1804FD5
:10308C0009D07B681B68124A934204D07B681B688A
:10309C00104A93420CD1BB6823F08003BB603B68A1
:1030AC005B68BA681343BB607B681B68BA689A603C
:1030BC007B68012283F83D207B68002283F83C204A
:1030CC00002318461437BD4680BC7047002C0140C5
:1030DC00000400400008004080B588B000AFFDF748
:1030EC00B9FF00F03BF800F085F900F065F900F04D
:1030FC0091F800F0EBF81649164800F012FB144852
:10310C0000F02BFB144800F00DFC114800F03DFBC7
:10311C00F8610F4800F044FBB8610D4800F04BFB20
:10312C007861F86900F052FB3861B86900F04EFB29
:10313C00F860786900F0B0FBB860F968386900F0A5
:10314C00DDFB7860786800F0CBFC00BFDDE700BFEA
:10315C00380100207C000020F000002080B594B0E5
:10316C0000AF07F1280328220021184600F022FEA8
:10317C0007F1140300221A605A609A60DA601A612F
:10318C003B1D00221A605A609A60DA600123BB6210
:10319C004FF48033FB6200233B630123BB630223A8
:1031AC007B644FF48033BB644FF4E013FB6407F192
:1031BC0028031846FDF7B0FF0346002B01D000F0A2
:1031CC0063F90F237B610223BB610023FB614FF486
:1031DC0080633B6200237B6207F1140302211846D3
:1031EC00FEF71CFA0346002B01D000F04DF9022328
:1031FC007B604FF40043FB603B1D1846FEF788FBD9
:10320C000346002B01D000F03FF900BF5037BD46FC
:10321C0080BD000080B584B000AF3B1D00221A6059
:10322C005A609A60274B284A1A60264B4FF48072DA
:10323C009A60244B01221A73224B00221A75214BDF
:10324C004FF46022DA611F4B00225A601D4B03229F
:10325C001A611C48FDF784FA0346002B01D000F0DC
:10326C0013F900237B600123BB600723FB603B1D2C
:10327C0019461448FDF746FC0346002B01D000F01C
:10328C0003F901237B600223BB603B1D19460D48EB
:10329C00FDF738FC0346002B01D000F0F5F81023A5
:1032AC007B600323BB603B1D19460648FDF72AFCD7
:1032BC000346002B01D000F0E7F800BF1037BD46E5
:1032CC0080BD00BF7C0000200024014080B58EB082
:1032DC0000AF07F1280300221A605A609A60DA6086
:1032EC0007F1200300221A605A603B1D00221A606D
:1032FC005A609A60DA601A615A619A612C4B2D4AB5
:10330C001A602B4B00225A60294B00229A60284BE2
:10331C0040F63F32DA60264B00221A61244B8022A1
:10332C009A612348FFF7F7F80346002B01D000F011
:10333C00ABF84FF48053BB6207F1280319461C48C5
:10334C00FFF7F4FA0346002B01D000F09DF8184863
:10335C00FFF730F90346002B01D000F095F800235D
:10336C003B6200237B6207F1200319461048FFF7EC
:10337C0055FE0346002B01D000F086F860237B60DD
:10338C000023BB600023FB6000237B613B1D0022FC
:10339C0019460748FFF708FA0346002B01D000F046
:1033AC0073F8034800F066F900BF3837BD4680BD9E
:1033BC00F00000200004004080B582B000AF0C4B40
:1033CC005B690B4A43F001035361094B5B6903F0E2
:1033DC0001037B607B68002200210B20FFF765F85E
:1033EC000B20FFF77EF800BF0837BD4680BD00BF3D
:1033FC000010024080B588B000AF07F11003002226
:10340C001A605A609A60DA601D4B9B691C4A43F043
:10341C00200393611A4B9B6903F02003FB60FB684C
:10342C00174B9B69164A43F004039361144B9B6939
:10343C0003F00403BB60BB68114B9B69104A43F05B
:10344C00080393610E4B9B6903F008037B607B6858
:10345C00002204210B48FEF74BFD04233B610123A2
:10346C007B610023BB610223FB6107F1100319464A
:10347C000448FEF7B9FB00BF2037BD4680BD00BF36
:10348C0000100240000C014080B400AF72B600BFC7
:10349C0000BFFDE780B400AF00BFFDE780B400AF14
:1034AC0000BFFDE780B400AF00BFFDE780B400AF04
:1034BC0000BFFDE780B400AF00BFFDE780B400AFF4
:1034CC0000BFBD4680BC704780B400AF00BFBD4696
:1034DC0080BC704780B400AF00BFBD4680BC704755
:1034EC0080B500AFFDF7FCFD00BF80BD80B500AF1F
:1034FC000248FEF7CFFD00BF80BD00BFAC0000202E
:10350C0080B485B000AF154B9B69144A43F001039E
:10351C009361124B9B6903F00103BB60BB680F4BBB
:10352C00DB690E4A43F08053D3610C4BDB6903F02B
:10353C0080537B607B680A4B5B68FB60FB6823F005
:10354C00E063FB60FB6843F00073FB60044AFB68BC
:10355C00536000BF1437BD4680BC7047001002405A
:10356C000000014080B588B000AF786007F110030F
:10357C0000221A605A609A60DA607B681B68294ADC
:10358C0093424AD1284B9B69274A43F400739361B9
:10359C00254B9B6903F40073FB60FB68224B9B6912
:1035AC00214A43F0040393611F4B9B6903F004030E
:1035BC00BB60BB6803233B6103237B6107F11003F2
:1035CC0019461A48FEF710FB194B1A4A1A60184B89
:1035DC0000225A60164B00229A60154B8022DA604A
:1035EC00134B4FF480721A61114B4FF480625A6185
:1035FC000F4B20229A610E4B4FF48052DA610C482B
:10360C00FEF78EFC0346002B01D0FFF73DFF7B68D5
:10361C00074A1A62064A7B68536200BF2037BD46D0
:10362C0080BD00BF00240140001002400008014092
:10363C00AC0000200800024080B485B000AF786078
:10364C007B681B68094A93420BD1094BDB69084A1A
:10365C0043F00203D361064BDB6903F00203FB600A
:10366C00FB6800BF1437BD4680BC704700040040A7
:10367C000010024080B588B000AF786007F11003ED
:10368C0000221A605A609A60DA607B681B680F4AE5
:10369C00934217D10E4B9B690D4A43F0040393617F
:1036AC000B4B9B6903F00403FB60FB6840233B61FD
:1036BC0002237B610223FB6107F1100319460548C5
:1036CC00FEF792FA00BF2037BD4680BD00040040D3
:1036DC000010024000080140FDF73CF80B480C4973
:1036EC000C4A002302E0D458C4500433C4188C4252
:1036FC00F9D3094A094C002301E013600432A242B9
:10370C00FBD300F065FBFFF7E7FC704700000020DF
:10371C005C000020843E00085C0000208402002035
:10372C00FEE780B485B000AF786039603B687A689A
:10373C009A600023FB7307E0FA7B3B68002123F8B7
:10374C001210FB7B0133FB73FB7B022BF4D900BF04
:10375C0000BF1437BD4680BC704780B582B000AF47
:10376C0078607B689B68002B0BD07B689B68184645
:10377C00FDF7C2FB7B689B68796803221846FDF74E
:10378C00C7F800BF0837BD4680BD80B483B000AF1A
:10379C0078607B681B8818460C37BD4680BC704728
:1037AC0080B483B000AF78607B685B8818460C37B8
:1037BC00BD4680BC704780B483B000AF78607B6836
:1037CC009B8818460C37BD4680BC704780B586B0C8
:1037DC0000AF78607868FCF769FD03462749184606
:1037EC00FCF7BCFD034626491846FCF76BFE034666
:1037FC007B6122497869FCF763FF0346002B06D1F5
:10380C0020497869FCF752FF0346002B02D04FF099
:10381C0000032FE079691948FCF796FC034619461A
:10382C007869FCF74FFE034617491846FCF796FDDE
:10383C0003463B6114493869FCF744FE03461846BD
:10384C0000F05EF9034611491846FCF787FD034664
:10385C000F491846FCF77AFC034619464FF07E5088
:10386C00FCF730FE03460B491846FCF76DFC03468B
:10387C00FB60FB6818461837BD4680BD3333534098
:10388C0000F07F450AD7233C00401C462CBB8439F2
:10389C000FCF5B3B3393884380B584B000AF786027
:1038AC007868FCF703FD03460F491846FCF756FDF4
:1038BC0003460E491846FCF705FE0346FB60F96803
:1038CC000B48FCF741FC03460A491846FCF7FAFD85
:1038DC00034609491846FCF739FC0346BB60BB6834
:1038EC0018461037BD4680BD3333534000F07F453A
:1038FC003D0AB73F04E78C3B0000C84180B582B05D
:10390C0000AF7860396039687868FCF7E3FE0346ED
:10391C00002B01D07B6800E03B6818460837BD4699
:10392C0080BD000080B582B000AF78601C4A7B6817
:10393C0013601B4B1B68002B2ED0194B1B68194AAC
:10394C00126811461846FEF78DFE164B1B68002BAD
:10395C0006D1134B1B681B6840F29F525A631BE045
:10396C00104B1B68042B06D10D4B1B681A6840F2D8
:10397C009F53936310E00B4B1B68082B06D1084B2D
:10398C001B681A6840F29F53D36305E0044B1B6815
:10399C001A6840F29F53136400BF0837BD4680BDC0
:1039AC00440100204801002080B584B000AF78604D
:1039BC001A497868FCF770FE0346002B02D04FF0D2
:1039CC00000327E016497868FCF766FE0346002BD7
:1039DC0001D0144B1EE014497868FCF771FE0346C5
:1039EC00002B02D04FF07E5314E00D497868FCF7A1
:1039FC00ABFB03460D491846FCF764FD0346FB6020
:103A0C000B49F868FCF7AAFC034606491846FCF774
:103A1C009DFB034618461037BD4680BD0000704123
:103A2C000000C8413D0AD73E0000F0410000A04014
:103A3C00E27A143F80B584B000AF7860254B1B68E8
:103A4C00002B43D04FF000017868FCF725FE0346AD
:103A5C00002B02D04FF000037B604FF07E51786852
:103A6C00FCF738FE0346002B02D04FF07E537B60F0
:103A7C0019497868FCF772FC03461846FCF74AFEB5
:103A8C000346FB60154B1B68002B05D1114B1B68C3
:103A9C001B68FA685A631AE0104B1B68042B05D19B
:103AAC000C4B1B681A68FB68936310E00B4B1B688C
:103ABC00082B05D1074B1B681A68FB68D36306E01B
:103ACC00044B1B681A68FB68136400E000BF1037D6
:103ADC00BD4680BD4401002000F033454801002064
:103AEC0080B584B000AF78607868FFF75DFFF86050
:103AFC00F868FFF79FFF00BF1037BD4680BD000080
:103B0C0038B5044600F028F8214605462046FCF757
:103B1C00EBFD70B900212046FCF7DCFD48B9002113
:103B2C002046FCF7AFFD30B100F04CF92223064DD6
:103B3C000360284638BD00F045F921230360034893
:103B4C00BDE8384000F004B8000080FF7A3E000861
:103B5C00004870470000C07F30F0004201462DE95C
:103B6C00F84F06D100214FF04C40FCF7ABFCBDE800
:103B7C00F88F0028044603DAFCF7E6FA0021F4E794
:103B8C00B0F1FF4F02DBFCF7E1FAF0E7B0F5000F04
:103B9C0035DA4FF09841FCF7E1FB6FF0180304465F
:103BAC00E7157F3F1F44764BC4F31604234403F4FC
:103BBC00000080F07E504FF07E51204307EBD3572E
:103BCC00FCF7C2FA6F4B04F10F0213400646002BB0
:103BDC0043D10021FCF756FD98B1002F00F0CD80A9
:103BEC003846FCF767FB68490546FCF7B7FB6749A5
:103BFC0004462846FCF7B2FB01462046C3E70023E7
:103C0C00CEE763493046FCF7A9FB01464FF07C50E8
:103C1C00FCF79AFA314604463046FCF79FFB014606
:103C2C002046FCF79BFB04460FB9214678E038464A
:103C3C00FCF740FB54490746FCF790FB0546384619
:103C4C005249FCF78BFB01462046FCF77DFA3146C6
:103C5C00FCF77AFA0146284679E04FF08041FCF7F0
:103C6C0075FA01463046FCF72DFC81463846FCF7C8
:103C7C0021FB494680464846FCF770FB01468246CC
:103C8C00FCF76CFB05464349FCF768FB4249FCF723
:103C9C005DFA2946FCF762FB4049FCF757FA2946C6
:103CAC00FCF75CFB3E49FCF751FA5146FCF756FB1E
:103CBC003C4982462846FCF751FB3B49FCF746FA47
:103CCC002946FCF74BFB3949FCF740FA2946FCF72F
:103CDC0045FB01465046FCF739FADFF8D4B00546EF
:103CEC00A344C4F5571404F5227444EA0B04002CC5
:103CFC0030DD4FF07C513046FCF730FB3146FCF7A1
:103D0C002DFB014604462846FCF720FA4946FCF7F1
:103D1C0025FB054637B901462046FCF715FA014646
:103D2C00304614E018494046FCF718FB1749074683
:103D3C004046FCF713FB2946FCF708FA01462046DF
:103D4C00FCF702FA3146FCF7FFF901463846FCF75E
:103D5C00FBF90CE701463046FCF7F6F94946FCF74F
:103D6C00FDFA0446002F3FF460AF07494046FCF7CC
:103D7C00F5FA06490546404663E70020F7E600BF22
:103D8C0020FB4A00F0FF7F008071313FD1F71737DD
:103D9C00ABAAAA3E9788173E25333A3E2549923E58
:103DAC00ABAA2A3F4FD01C3E298E633ECDCCCC3ED5
:103DBC00305CCFFF03460244934200D1704703F8B6
:103DCC00011BF9E7014B1868704700BF0C0000207D
:103DDC0070B500260C4D0D4C641BA410A64209D1E5
:103DEC0000F01AF800260A4D0A4C641BA410A642D7
:103DFC0005D170BD55F8043B98470136EEE755F8F0
:103E0C00043B98470136F2E77C3E00087C3E0008F4
:103E1C007C3E0008803E0008F8B500BFF8BC08BC2A
:103E2C009E467047F8B500BFF8BC08BC9E4670476C
:103E3C00000000000000000001020304060708094E
:103E4C000000000001020304020304050607080930
:103E5C000A0B0C0D0E0F10100102000002030405DA
:103E6C00060708090A0B0C0D0E0F101001020000BA
:043E7C003101000808
:043E80000D01000828
:103E840000127A0010000000010000001000002061
:103E9400000000004C010020B40100201C0200209E
:103EA400000000000000000000000000000000000E
:103EB40000000000000000000000000000000000FE
:103EC40000000000000000000000000000000000EE
:0C3ED400000000000000000000000000E2
:04000005080036E5D4
:00000001FF
